{
  "contractName": "Staking",
  "abi": [
    {
      "inputs": [
        {
          "internalType": "address",
          "name": "ethUsdPriceFeedAddress_",
          "type": "address"
        }
      ],
      "stateMutability": "nonpayable",
      "type": "constructor"
    },
    {
      "anonymous": false,
      "inputs": [
        {
          "indexed": false,
          "internalType": "address",
          "name": "sender",
          "type": "address"
        },
        {
          "indexed": false,
          "internalType": "uint256",
          "name": "amount",
          "type": "uint256"
        }
      ],
      "name": "Claimed",
      "type": "event"
    },
    {
      "anonymous": false,
      "inputs": [
        {
          "indexed": false,
          "internalType": "address",
          "name": "sender",
          "type": "address"
        },
        {
          "indexed": false,
          "internalType": "uint256",
          "name": "amount",
          "type": "uint256"
        },
        {
          "indexed": false,
          "internalType": "uint256",
          "name": "stakeId",
          "type": "uint256"
        }
      ],
      "name": "Staked",
      "type": "event"
    },
    {
      "anonymous": false,
      "inputs": [
        {
          "indexed": false,
          "internalType": "address",
          "name": "sender",
          "type": "address"
        },
        {
          "indexed": false,
          "internalType": "uint256",
          "name": "amount",
          "type": "uint256"
        }
      ],
      "name": "Unstaked",
      "type": "event"
    },
    {
      "inputs": [],
      "name": "distributionPerSecond",
      "outputs": [
        {
          "internalType": "uint256",
          "name": "",
          "type": "uint256"
        }
      ],
      "stateMutability": "view",
      "type": "function",
      "constant": true
    },
    {
      "inputs": [
        {
          "internalType": "address",
          "name": "",
          "type": "address"
        }
      ],
      "name": "priceOracleKeys",
      "outputs": [
        {
          "internalType": "string",
          "name": "",
          "type": "string"
        }
      ],
      "stateMutability": "view",
      "type": "function",
      "constant": true
    },
    {
      "inputs": [
        {
          "internalType": "string",
          "name": "",
          "type": "string"
        }
      ],
      "name": "priceOracles",
      "outputs": [
        {
          "internalType": "address",
          "name": "aggregatorAddress",
          "type": "address"
        },
        {
          "internalType": "string",
          "name": "tokenA",
          "type": "string"
        },
        {
          "internalType": "string",
          "name": "tokenB",
          "type": "string"
        }
      ],
      "stateMutability": "view",
      "type": "function",
      "constant": true
    },
    {
      "inputs": [
        {
          "internalType": "address",
          "name": "",
          "type": "address"
        },
        {
          "internalType": "uint256",
          "name": "",
          "type": "uint256"
        }
      ],
      "name": "tokenStakes",
      "outputs": [
        {
          "internalType": "address",
          "name": "tokenAddress",
          "type": "address"
        },
        {
          "internalType": "uint256",
          "name": "amount",
          "type": "uint256"
        },
        {
          "internalType": "uint256",
          "name": "sinceTimestamp",
          "type": "uint256"
        },
        {
          "internalType": "uint256",
          "name": "untilTimestamp",
          "type": "uint256"
        }
      ],
      "stateMutability": "view",
      "type": "function",
      "constant": true
    },
    {
      "inputs": [
        {
          "internalType": "address",
          "name": "user_",
          "type": "address"
        },
        {
          "internalType": "uint256",
          "name": "stakeId_",
          "type": "uint256"
        }
      ],
      "name": "getStakeValue",
      "outputs": [
        {
          "internalType": "uint256",
          "name": "",
          "type": "uint256"
        }
      ],
      "stateMutability": "view",
      "type": "function",
      "constant": true
    },
    {
      "inputs": [
        {
          "internalType": "string",
          "name": "pair_",
          "type": "string"
        }
      ],
      "name": "getOraclePrice",
      "outputs": [
        {
          "internalType": "uint256",
          "name": "",
          "type": "uint256"
        }
      ],
      "stateMutability": "view",
      "type": "function",
      "constant": true
    },
    {
      "inputs": [
        {
          "internalType": "address",
          "name": "user_",
          "type": "address"
        },
        {
          "internalType": "uint256",
          "name": "stakeId_",
          "type": "uint256"
        }
      ],
      "name": "_claim",
      "outputs": [],
      "stateMutability": "nonpayable",
      "type": "function"
    },
    {
      "inputs": [
        {
          "internalType": "address",
          "name": "token_",
          "type": "address"
        },
        {
          "internalType": "uint256",
          "name": "amount_",
          "type": "uint256"
        }
      ],
      "name": "stake",
      "outputs": [
        {
          "internalType": "uint256",
          "name": "",
          "type": "uint256"
        }
      ],
      "stateMutability": "nonpayable",
      "type": "function"
    },
    {
      "inputs": [
        {
          "internalType": "uint256",
          "name": "stakeId_",
          "type": "uint256"
        }
      ],
      "name": "claim",
      "outputs": [],
      "stateMutability": "nonpayable",
      "type": "function"
    },
    {
      "inputs": [
        {
          "internalType": "uint256",
          "name": "stakeId_",
          "type": "uint256"
        }
      ],
      "name": "unstake",
      "outputs": [],
      "stateMutability": "nonpayable",
      "type": "function"
    },
    {
      "inputs": [
        {
          "internalType": "address",
          "name": "user_",
          "type": "address"
        },
        {
          "internalType": "uint256",
          "name": "stakeId_",
          "type": "uint256"
        }
      ],
      "name": "getClaimable",
      "outputs": [
        {
          "internalType": "uint256",
          "name": "",
          "type": "uint256"
        }
      ],
      "stateMutability": "view",
      "type": "function",
      "constant": true
    },
    {
      "inputs": [],
      "name": "getProtocolTokenAddress",
      "outputs": [
        {
          "internalType": "address",
          "name": "",
          "type": "address"
        }
      ],
      "stateMutability": "view",
      "type": "function",
      "constant": true
    },
    {
      "inputs": [
        {
          "internalType": "address",
          "name": "user_",
          "type": "address"
        }
      ],
      "name": "getUserStakes",
      "outputs": [
        {
          "components": [
            {
              "internalType": "address",
              "name": "tokenAddress",
              "type": "address"
            },
            {
              "internalType": "uint256",
              "name": "amount",
              "type": "uint256"
            },
            {
              "internalType": "uint256",
              "name": "sinceTimestamp",
              "type": "uint256"
            },
            {
              "internalType": "uint256",
              "name": "untilTimestamp",
              "type": "uint256"
            }
          ],
          "internalType": "struct Staking.Stake[]",
          "name": "",
          "type": "tuple[]"
        }
      ],
      "stateMutability": "view",
      "type": "function",
      "constant": true
    },
    {
      "inputs": [
        {
          "internalType": "address",
          "name": "user_",
          "type": "address"
        },
        {
          "internalType": "uint256",
          "name": "stakeId_",
          "type": "uint256"
        }
      ],
      "name": "getUserStake",
      "outputs": [
        {
          "components": [
            {
              "internalType": "address",
              "name": "tokenAddress",
              "type": "address"
            },
            {
              "internalType": "uint256",
              "name": "amount",
              "type": "uint256"
            },
            {
              "internalType": "uint256",
              "name": "sinceTimestamp",
              "type": "uint256"
            },
            {
              "internalType": "uint256",
              "name": "untilTimestamp",
              "type": "uint256"
            }
          ],
          "internalType": "struct Staking.Stake",
          "name": "",
          "type": "tuple"
        }
      ],
      "stateMutability": "view",
      "type": "function",
      "constant": true
    },
    {
      "inputs": [
        {
          "internalType": "address",
          "name": "user_",
          "type": "address"
        },
        {
          "internalType": "address",
          "name": "token_",
          "type": "address"
        }
      ],
      "name": "getUserBalance",
      "outputs": [
        {
          "internalType": "uint256",
          "name": "",
          "type": "uint256"
        }
      ],
      "stateMutability": "view",
      "type": "function",
      "constant": true
    }
  ],
  "bytecode": "0x60806040523480156200001157600080fd5b5060405162004bfe38038062004bfe8339818101604052810190620000379190620003ab565b60405180606001604052808273ffffffffffffffffffffffffffffffffffffffff1681526020016040518060400160405280600381526020017f455448000000000000000000000000000000000000000000000000000000000081525081526020016040518060400160405280600381526020017f55534400000000000000000000000000000000000000000000000000000000008152508152506002604051620000e29062000438565b908152602001604051809103902060008201518160000160006101000a81548173ffffffffffffffffffffffffffffffffffffffff021916908373ffffffffffffffffffffffffffffffffffffffff16021790555060208201518160010190805190602001906200015592919062000283565b5060408201518160020190805190602001906200017492919062000283565b509050506040518060400160405280600681526020017f4554485553440000000000000000000000000000000000000000000000000000815250600360008373ffffffffffffffffffffffffffffffffffffffff1673ffffffffffffffffffffffffffffffffffffffff16815260200190815260200160002090805190602001906200020292919062000283565b506000604051620002139062000314565b6200021f9190620004a6565b604051809103906000f0801580156200023c573d6000803e3d6000fd5b506000806101000a81548173ffffffffffffffffffffffffffffffffffffffff021916908373ffffffffffffffffffffffffffffffffffffffff1602179055505062000527565b8280546200029190620004f2565b90600052602060002090601f016020900481019282620002b5576000855562000301565b82601f10620002d057805160ff191683800117855562000301565b8280016001018555821562000301579182015b8281111562000300578251825591602001919060010190620002e3565b5b50905062000310919062000322565b5090565b6120148062002bea83390190565b5b808211156200033d57600081600090555060010162000323565b5090565b600080fd5b600073ffffffffffffffffffffffffffffffffffffffff82169050919050565b6000620003738262000346565b9050919050565b620003858162000366565b81146200039157600080fd5b50565b600081519050620003a5816200037a565b92915050565b600060208284031215620003c457620003c362000341565b5b6000620003d48482850162000394565b91505092915050565b600081905092915050565b7f4554485553440000000000000000000000000000000000000000000000000000600082015250565b600062000420600683620003dd565b91506200042d82620003e8565b600682019050919050565b6000620004458262000411565b9150819050919050565b6000819050919050565b6000819050919050565b6000819050919050565b60006200048e6200048862000482846200044f565b62000463565b62000459565b9050919050565b620004a0816200046d565b82525050565b6000602082019050620004bd600083018462000495565b92915050565b7f4e487b7100000000000000000000000000000000000000000000000000000000600052602260045260246000fd5b600060028204905060018216806200050b57607f821691505b602082108103620005215762000520620004c3565b5b50919050565b6126b380620005376000396000f3fe608060405234801561001057600080fd5b50600436106100f55760003560e01c8063842e298111610097578063bd53877711610066578063bd538777146102c1578063cec695fa146102df578063e63a330d1461030f578063f5a908f01461033f576100f5565b8063842e2981146101fc578063a969a8631461022c578063aad6601f1461025f578063adc9772e14610291576100f5565b80634052d8f5116100d35780634052d8f514610150578063620fc737146101805780636805d6ad1461019c5780636f5244b1146101cc576100f5565b80632e17de78146100fa578063379607f5146101165780633817a09614610132575b600080fd5b610114600480360381019061010f9190611734565b61036f565b005b610130600480360381019061012b9190611734565b610713565b005b61013a610783565b6040516101479190611770565b60405180910390f35b61016a600480360381019061016591906117e9565b610788565b60405161017791906118af565b60405180910390f35b61019a600480360381019061019591906118d1565b610828565b005b6101b660048036038101906101b19190611911565b610afb565b6040516101c39190611770565b60405180910390f35b6101e660048036038101906101e191906118d1565b610b7f565b6040516101f39190611770565b60405180910390f35b610216600480360381019061021191906117e9565b610d41565b6040516102239190611a73565b60405180910390f35b610246600480360381019061024191906118d1565b610e53565b6040516102569493929190611aa4565b60405180910390f35b61027960048036038101906102749190611c1e565b610ec0565b60405161028893929190611c67565b60405180910390f35b6102ab60048036038101906102a691906118d1565b611030565b6040516102b89190611770565b60405180910390f35b6102c9611266565b6040516102d69190611cac565b60405180910390f35b6102f960048036038101906102f491906118d1565b61128f565b6040516103069190611d1c565b60405180910390f35b610329600480360381019061032491906118d1565b61137d565b6040516103369190611770565b60405180910390f35b61035960048036038101906103549190611c1e565b611527565b6040516103669190611770565b60405180910390f35b6000600160003373ffffffffffffffffffffffffffffffffffffffff1673ffffffffffffffffffffffffffffffffffffffff1681526020019081526020016000209050818180549050116103f8576040517f08c379a00000000000000000000000000000000000000000000000000000000081526004016103ef90611d83565b60405180910390fd5b600081838154811061040d5761040c611da3565b5b906000526020600020906004020160010154905060008111610464576040517f08c379a000000000000000000000000000000000000000000000000000000000815260040161045b90611e1e565b60405180910390fd5b600082848154811061047957610478611da3565b5b906000526020600020906004020160030154146104cb576040517f08c379a00000000000000000000000000000000000000000000000000000000081526004016104c290611e8a565b60405180910390fd5b3073ffffffffffffffffffffffffffffffffffffffff1663620fc73733856040518363ffffffff1660e01b8152600401610506929190611eaa565b600060405180830381600087803b15801561052057600080fd5b505af1158015610534573d6000803e3d6000fd5b505050504282848154811061054c5761054b611da3565b5b906000526020600020906004020160030181905550600082848154811061057657610575611da3565b5b90600052602060002090600402016001018190555060008284815481106105a05761059f611da3565b5b906000526020600020906004020160000160009054906101000a900473ffffffffffffffffffffffffffffffffffffffff1690508073ffffffffffffffffffffffffffffffffffffffff1663095ea7b333846040518363ffffffff1660e01b815260040161060f929190611eaa565b6020604051808303816000875af115801561062e573d6000803e3d6000fd5b505050506040513d601f19601f820116820180604052508101906106529190611f0b565b508073ffffffffffffffffffffffffffffffffffffffff166323b872dd3033856040518463ffffffff1660e01b815260040161069093929190611f38565b6020604051808303816000875af11580156106af573d6000803e3d6000fd5b505050506040513d601f19601f820116820180604052508101906106d39190611f0b565b507f0f5bb82176feb1b5e747e28471aa92156a04d9f3ab9f45f28e2d704232b93f753383604051610705929190611eaa565b60405180910390a150505050565b3073ffffffffffffffffffffffffffffffffffffffff1663620fc73733836040518363ffffffff1660e01b815260040161074e929190611eaa565b600060405180830381600087803b15801561076857600080fd5b505af115801561077c573d6000803e3d6000fd5b5050505050565b600a81565b600360205280600052604060002060009150905080546107a790611f9e565b80601f01602080910402602001604051908101604052809291908181526020018280546107d390611f9e565b80156108205780601f106107f557610100808354040283529160200191610820565b820191906000526020600020905b81548152906001019060200180831161080357829003601f168201915b505050505081565b3073ffffffffffffffffffffffffffffffffffffffff163373ffffffffffffffffffffffffffffffffffffffff1614610896576040517f08c379a000000000000000000000000000000000000000000000000000000000815260040161088d90612041565b60405180910390fd5b6000600160008473ffffffffffffffffffffffffffffffffffffffff1673ffffffffffffffffffffffffffffffffffffffff16815260200190815260200160002090508181805490501161091f576040517f08c379a0000000000000000000000000000000000000000000000000000000008152600401610916906120ad565b60405180910390fd5b600081838154811061093457610933611da3565b5b90600052602060002090600402016003015414610986576040517f08c379a000000000000000000000000000000000000000000000000000000000815260040161097d90612119565b60405180910390fd5b60003073ffffffffffffffffffffffffffffffffffffffff16636f5244b185856040518363ffffffff1660e01b81526004016109c3929190611eaa565b602060405180830381865afa1580156109e0573d6000803e3d6000fd5b505050506040513d601f19601f82011682018060405250810190610a04919061214e565b905042828481548110610a1a57610a19611da3565b5b90600052602060002090600402016002018190555060008054906101000a900473ffffffffffffffffffffffffffffffffffffffff1673ffffffffffffffffffffffffffffffffffffffff1663449a52f885836040518363ffffffff1660e01b8152600401610a8a929190611eaa565b600060405180830381600087803b158015610aa457600080fd5b505af1158015610ab8573d6000803e3d6000fd5b505050507fd8138f8a3f377c5259ca548e70e4c2de94f129f5a11036a15b69513cba2b426a8482604051610aed929190611eaa565b60405180910390a150505050565b60008173ffffffffffffffffffffffffffffffffffffffff166370a08231846040518263ffffffff1660e01b8152600401610b369190611cac565b602060405180830381865afa158015610b53573d6000803e3d6000fd5b505050506040513d601f19601f82011682018060405250810190610b77919061214e565b905092915050565b600080600160008573ffffffffffffffffffffffffffffffffffffffff1673ffffffffffffffffffffffffffffffffffffffff168152602001908152602001600020905082818054905011610c09576040517f08c379a0000000000000000000000000000000000000000000000000000000008152600401610c00906121c7565b60405180910390fd5b6000818481548110610c1e57610c1d611da3565b5b90600052602060002090600402016003015414610c70576040517f08c379a0000000000000000000000000000000000000000000000000000000008152600401610c6790612233565b60405180910390fd5b6000600a828581548110610c8757610c86611da3565b5b90600052602060002090600402016002015442610ca49190612282565b610cae91906122b6565b90503073ffffffffffffffffffffffffffffffffffffffff1663e63a330d86866040518363ffffffff1660e01b8152600401610ceb929190611eaa565b602060405180830381865afa158015610d08573d6000803e3d6000fd5b505050506040513d601f19601f82011682018060405250810190610d2c919061214e565b81610d3791906122b6565b9250505092915050565b6060600160008373ffffffffffffffffffffffffffffffffffffffff1673ffffffffffffffffffffffffffffffffffffffff168152602001908152602001600020805480602002602001604051908101604052809291908181526020016000905b82821015610e4857838290600052602060002090600402016040518060800160405290816000820160009054906101000a900473ffffffffffffffffffffffffffffffffffffffff1673ffffffffffffffffffffffffffffffffffffffff1673ffffffffffffffffffffffffffffffffffffffff168152602001600182015481526020016002820154815260200160038201548152505081526020019060010190610da2565b505050509050919050565b60016020528160005260406000208181548110610e6f57600080fd5b9060005260206000209060040201600091509150508060000160009054906101000a900473ffffffffffffffffffffffffffffffffffffffff16908060010154908060020154908060030154905084565b6002818051602081018201805184825260208301602085012081835280955050505050506000915090508060000160009054906101000a900473ffffffffffffffffffffffffffffffffffffffff1690806001018054610f1f90611f9e565b80601f0160208091040260200160405190810160405280929190818152602001828054610f4b90611f9e565b8015610f985780601f10610f6d57610100808354040283529160200191610f98565b820191906000526020600020905b815481529060010190602001808311610f7b57829003601f168201915b505050505090806002018054610fad90611f9e565b80601f0160208091040260200160405190810160405280929190818152602001828054610fd990611f9e565b80156110265780601f10610ffb57610100808354040283529160200191611026565b820191906000526020600020905b81548152906001019060200180831161100957829003601f168201915b5050505050905083565b6000808211611074576040517f08c379a000000000000000000000000000000000000000000000000000000000815260040161106b9061235c565b60405180910390fd5b6000600160003373ffffffffffffffffffffffffffffffffffffffff1673ffffffffffffffffffffffffffffffffffffffff16815260200190815260200160002090508060405180608001604052808673ffffffffffffffffffffffffffffffffffffffff1681526020018581526020014281526020016000815250908060018154018082558091505060019003906000526020600020906004020160009091909190915060008201518160000160006101000a81548173ffffffffffffffffffffffffffffffffffffffff021916908373ffffffffffffffffffffffffffffffffffffffff16021790555060208201518160010155604082015181600201556060820151816003015550508373ffffffffffffffffffffffffffffffffffffffff166323b872dd3330866040518463ffffffff1660e01b81526004016111bd93929190611f38565b6020604051808303816000875af11580156111dc573d6000803e3d6000fd5b505050506040513d601f19601f820116820180604052508101906112009190611f0b565b507f1449c6dd7851abc30abf37f57715f492010519147cc2652fbc38202c18a6ee903384600184805490506112359190612282565b6040516112449392919061237c565b60405180910390a16001818054905061125d9190612282565b91505092915050565b60008060009054906101000a900473ffffffffffffffffffffffffffffffffffffffff16905090565b6112976116ac565b600160008473ffffffffffffffffffffffffffffffffffffffff1673ffffffffffffffffffffffffffffffffffffffff16815260200190815260200160002082815481106112e8576112e7611da3565b5b90600052602060002090600402016040518060800160405290816000820160009054906101000a900473ffffffffffffffffffffffffffffffffffffffff1673ffffffffffffffffffffffffffffffffffffffff1673ffffffffffffffffffffffffffffffffffffffff1681526020016001820154815260200160028201548152602001600382015481525050905092915050565b600080600160008573ffffffffffffffffffffffffffffffffffffffff1673ffffffffffffffffffffffffffffffffffffffff168152602001908152602001600020905082818054905011611407576040517f08c379a00000000000000000000000000000000000000000000000000000000081526004016113fe906123ff565b60405180910390fd5b600081848154811061141c5761141b611da3565b5b906000526020600020906004020190506000600360008360000160009054906101000a900473ffffffffffffffffffffffffffffffffffffffff1673ffffffffffffffffffffffffffffffffffffffff1673ffffffffffffffffffffffffffffffffffffffff16815260200190815260200160002090503073ffffffffffffffffffffffffffffffffffffffff1663f5a908f0826040518263ffffffff1660e01b81526004016114cc91906124b4565b602060405180830381865afa1580156114e9573d6000803e3d6000fd5b505050506040513d601f19601f8201168201806040525081019061150d919061214e565b826001015461151c91906122b6565b935050505092915050565b600080600073ffffffffffffffffffffffffffffffffffffffff166002846040516115529190612512565b908152602001604051809103902060000160009054906101000a900473ffffffffffffffffffffffffffffffffffffffff1673ffffffffffffffffffffffffffffffffffffffff16036115e65760026040516115ad90612575565b908152602001604051809103902060000160009054906101000a900473ffffffffffffffffffffffffffffffffffffffff16905061162b565b6002836040516115f69190612512565b908152602001604051809103902060000160009054906101000a900473ffffffffffffffffffffffffffffffffffffffff1690505b60008173ffffffffffffffffffffffffffffffffffffffff1663feaf968c6040518163ffffffff1660e01b815260040160a060405180830381865afa158015611678573d6000803e3d6000fd5b505050506040513d601f19601f8201168201806040525081019061169c9190612602565b5050509150508092505050919050565b6040518060800160405280600073ffffffffffffffffffffffffffffffffffffffff1681526020016000815260200160008152602001600081525090565b6000604051905090565b600080fd5b600080fd5b6000819050919050565b611711816116fe565b811461171c57600080fd5b50565b60008135905061172e81611708565b92915050565b60006020828403121561174a576117496116f4565b5b60006117588482850161171f565b91505092915050565b61176a816116fe565b82525050565b60006020820190506117856000830184611761565b92915050565b600073ffffffffffffffffffffffffffffffffffffffff82169050919050565b60006117b68261178b565b9050919050565b6117c6816117ab565b81146117d157600080fd5b50565b6000813590506117e3816117bd565b92915050565b6000602082840312156117ff576117fe6116f4565b5b600061180d848285016117d4565b91505092915050565b600081519050919050565b600082825260208201905092915050565b60005b83811015611850578082015181840152602081019050611835565b8381111561185f576000848401525b50505050565b6000601f19601f8301169050919050565b600061188182611816565b61188b8185611821565b935061189b818560208601611832565b6118a481611865565b840191505092915050565b600060208201905081810360008301526118c98184611876565b905092915050565b600080604083850312156118e8576118e76116f4565b5b60006118f6858286016117d4565b92505060206119078582860161171f565b9150509250929050565b60008060408385031215611928576119276116f4565b5b6000611936858286016117d4565b9250506020611947858286016117d4565b9150509250929050565b600081519050919050565b600082825260208201905092915050565b6000819050602082019050919050565b611986816117ab565b82525050565b611995816116fe565b82525050565b6080820160008201516119b1600085018261197d565b5060208201516119c4602085018261198c565b5060408201516119d7604085018261198c565b5060608201516119ea606085018261198c565b50505050565b60006119fc838361199b565b60808301905092915050565b6000602082019050919050565b6000611a2082611951565b611a2a818561195c565b9350611a358361196d565b8060005b83811015611a66578151611a4d88826119f0565b9750611a5883611a08565b925050600181019050611a39565b5085935050505092915050565b60006020820190508181036000830152611a8d8184611a15565b905092915050565b611a9e816117ab565b82525050565b6000608082019050611ab96000830187611a95565b611ac66020830186611761565b611ad36040830185611761565b611ae06060830184611761565b95945050505050565b600080fd5b600080fd5b7f4e487b7100000000000000000000000000000000000000000000000000000000600052604160045260246000fd5b611b2b82611865565b810181811067ffffffffffffffff82111715611b4a57611b49611af3565b5b80604052505050565b6000611b5d6116ea565b9050611b698282611b22565b919050565b600067ffffffffffffffff821115611b8957611b88611af3565b5b611b9282611865565b9050602081019050919050565b82818337600083830152505050565b6000611bc1611bbc84611b6e565b611b53565b905082815260208101848484011115611bdd57611bdc611aee565b5b611be8848285611b9f565b509392505050565b600082601f830112611c0557611c04611ae9565b5b8135611c15848260208601611bae565b91505092915050565b600060208284031215611c3457611c336116f4565b5b600082013567ffffffffffffffff811115611c5257611c516116f9565b5b611c5e84828501611bf0565b91505092915050565b6000606082019050611c7c6000830186611a95565b8181036020830152611c8e8185611876565b90508181036040830152611ca28184611876565b9050949350505050565b6000602082019050611cc16000830184611a95565b92915050565b608082016000820151611cdd600085018261197d565b506020820151611cf0602085018261198c565b506040820151611d03604085018261198c565b506060820151611d16606085018261198c565b50505050565b6000608082019050611d316000830184611cc7565b92915050565b7f756e7374616b653a20696e636f7272656374207374616b652069640000000000600082015250565b6000611d6d601b83611821565b9150611d7882611d37565b602082019050919050565b60006020820190508181036000830152611d9c81611d60565b9050919050565b7f4e487b7100000000000000000000000000000000000000000000000000000000600052603260045260246000fd5b7f5374616b65206e6f7420666f756e640000000000000000000000000000000000600082015250565b6000611e08600f83611821565b9150611e1382611dd2565b602082019050919050565b60006020820190508181036000830152611e3781611dfb565b9050919050565b7f756e7374616b653a20416c726561647920756e7374616b656400000000000000600082015250565b6000611e74601983611821565b9150611e7f82611e3e565b602082019050919050565b60006020820190508181036000830152611ea381611e67565b9050919050565b6000604082019050611ebf6000830185611a95565b611ecc6020830184611761565b9392505050565b60008115159050919050565b611ee881611ed3565b8114611ef357600080fd5b50565b600081519050611f0581611edf565b92915050565b600060208284031215611f2157611f206116f4565b5b6000611f2f84828501611ef6565b91505092915050565b6000606082019050611f4d6000830186611a95565b611f5a6020830185611a95565b611f676040830184611761565b949350505050565b7f4e487b7100000000000000000000000000000000000000000000000000000000600052602260045260246000fd5b60006002820490506001821680611fb657607f821691505b602082108103611fc957611fc8611f6f565b5b50919050565b7f74686973206d6574686f642063616e206f6e6c792062652063616c6c6564206260008201527f792074686520636f6e7472616374000000000000000000000000000000000000602082015250565b600061202b602e83611821565b915061203682611fcf565b604082019050919050565b6000602082019050818103600083015261205a8161201e565b9050919050565b7f5f636c61696d20696e636f7272656374207374616b6520696400000000000000600082015250565b6000612097601983611821565b91506120a282612061565b602082019050919050565b600060208201905081810360008301526120c68161208a565b9050919050565b7f5f636c61696d3a20416c726561647920756e7374616b65640000000000000000600082015250565b6000612103601883611821565b915061210e826120cd565b602082019050919050565b60006020820190508181036000830152612132816120f6565b9050919050565b60008151905061214881611708565b92915050565b600060208284031215612164576121636116f4565b5b600061217284828501612139565b91505092915050565b7f676574436c61696d61626c6520696e636f7272656374207374616b6520696400600082015250565b60006121b1601f83611821565b91506121bc8261217b565b602082019050919050565b600060208201905081810360008301526121e0816121a4565b9050919050565b7f416c726561647920756e7374616b656400000000000000000000000000000000600082015250565b600061221d601083611821565b9150612228826121e7565b602082019050919050565b6000602082019050818103600083015261224c81612210565b9050919050565b7f4e487b7100000000000000000000000000000000000000000000000000000000600052601160045260246000fd5b600061228d826116fe565b9150612298836116fe565b9250828210156122ab576122aa612253565b5b828203905092915050565b60006122c1826116fe565b91506122cc836116fe565b9250817fffffffffffffffffffffffffffffffffffffffffffffffffffffffffffffffff048311821515161561230557612304612253565b5b828202905092915050565b7f43616e6e6f74207374616b65203020616d6f756e740000000000000000000000600082015250565b6000612346601583611821565b915061235182612310565b602082019050919050565b6000602082019050818103600083015261237581612339565b9050919050565b60006060820190506123916000830186611a95565b61239e6020830185611761565b6123ab6040830184611761565b949350505050565b7f6765745374616b6556616c756520696e636f7272656374207374616b65206964600082015250565b60006123e9602083611821565b91506123f4826123b3565b602082019050919050565b60006020820190508181036000830152612418816123dc565b9050919050565b60008190508160005260206000209050919050565b6000815461244181611f9e565b61244b8186611821565b945060018216600081146124665760018114612478576124ab565b60ff19831686526020860193506124ab565b6124818561241f565b60005b838110156124a357815481890152600182019150602081019050612484565b808801955050505b50505092915050565b600060208201905081810360008301526124ce8184612434565b905092915050565b600081905092915050565b60006124ec82611816565b6124f681856124d6565b9350612506818560208601611832565b80840191505092915050565b600061251e82846124e1565b915081905092915050565b7f4554485553440000000000000000000000000000000000000000000000000000600082015250565b600061255f6006836124d6565b915061256a82612529565b600682019050919050565b600061258082612552565b9150819050919050565b600069ffffffffffffffffffff82169050919050565b6125a98161258a565b81146125b457600080fd5b50565b6000815190506125c6816125a0565b92915050565b6000819050919050565b6125df816125cc565b81146125ea57600080fd5b50565b6000815190506125fc816125d6565b92915050565b600080600080600060a0868803121561261e5761261d6116f4565b5b600061262c888289016125b7565b955050602061263d888289016125ed565b945050604061264e88828901612139565b935050606061265f88828901612139565b9250506080612670888289016125b7565b915050929550929590935056fea2646970667358221220925c85ac6c5253695db49040e1f605646d8688587cfc5c43a3ab3d12496debcc64736f6c634300080d003360806040523480156200001157600080fd5b506040516200201438038062002014833981810160405281019062000037919062000450565b6040518060400160405280600581526020017f556e6946690000000000000000000000000000000000000000000000000000008152506040518060400160405280600381526020017f554e4600000000000000000000000000000000000000000000000000000000008152508160039080519060200190620000bb92919062000360565b508060049080519060200190620000d492919062000360565b505050620000f7620000eb6200011060201b60201c565b6200011860201b60201c565b620001093382620001de60201b60201c565b5062000623565b600033905090565b6000600560009054906101000a900473ffffffffffffffffffffffffffffffffffffffff16905081600560006101000a81548173ffffffffffffffffffffffffffffffffffffffff021916908373ffffffffffffffffffffffffffffffffffffffff1602179055508173ffffffffffffffffffffffffffffffffffffffff168173ffffffffffffffffffffffffffffffffffffffff167f8be0079c531659141344cd1fd0a4f28419497f9722a3daafe3b4186f6b6457e060405160405180910390a35050565b600073ffffffffffffffffffffffffffffffffffffffff168273ffffffffffffffffffffffffffffffffffffffff160362000250576040517f08c379a00000000000000000000000000000000000000000000000000000000081526004016200024790620004e3565b60405180910390fd5b62000264600083836200035660201b60201c565b806002600082825462000278919062000534565b92505081905550806000808473ffffffffffffffffffffffffffffffffffffffff1673ffffffffffffffffffffffffffffffffffffffff1681526020019081526020016000206000828254620002cf919062000534565b925050819055508173ffffffffffffffffffffffffffffffffffffffff16600073ffffffffffffffffffffffffffffffffffffffff167fddf252ad1be2c89b69c2b068fc378daa952ba7f163c4a11628f55a4df523b3ef83604051620003369190620005a2565b60405180910390a362000352600083836200035b60201b60201c565b5050565b505050565b505050565b8280546200036e90620005ee565b90600052602060002090601f016020900481019282620003925760008555620003de565b82601f10620003ad57805160ff1916838001178555620003de565b82800160010185558215620003de579182015b82811115620003dd578251825591602001919060010190620003c0565b5b509050620003ed9190620003f1565b5090565b5b808211156200040c576000816000905550600101620003f2565b5090565b600080fd5b6000819050919050565b6200042a8162000415565b81146200043657600080fd5b50565b6000815190506200044a816200041f565b92915050565b60006020828403121562000469576200046862000410565b5b6000620004798482850162000439565b91505092915050565b600082825260208201905092915050565b7f45524332303a206d696e7420746f20746865207a65726f206164647265737300600082015250565b6000620004cb601f8362000482565b9150620004d88262000493565b602082019050919050565b60006020820190508181036000830152620004fe81620004bc565b9050919050565b7f4e487b7100000000000000000000000000000000000000000000000000000000600052601160045260246000fd5b6000620005418262000415565b91506200054e8362000415565b9250827fffffffffffffffffffffffffffffffffffffffffffffffffffffffffffffffff0382111562000586576200058562000505565b5b828201905092915050565b6200059c8162000415565b82525050565b6000602082019050620005b9600083018462000591565b92915050565b7f4e487b7100000000000000000000000000000000000000000000000000000000600052602260045260246000fd5b600060028204905060018216806200060757607f821691505b6020821081036200061d576200061c620005bf565b5b50919050565b6119e180620006336000396000f3fe608060405234801561001057600080fd5b50600436106100f55760003560e01c806370a0823111610097578063a457c2d711610066578063a457c2d714610276578063a9059cbb146102a6578063dd62ed3e146102d6578063f2fde38b14610306576100f5565b806370a0823114610200578063715018a6146102305780638da5cb5b1461023a57806395d89b4114610258576100f5565b806323b872dd116100d357806323b872dd14610166578063313ce5671461019657806339509351146101b4578063449a52f8146101e4576100f5565b806306fdde03146100fa578063095ea7b31461011857806318160ddd14610148575b600080fd5b610102610322565b60405161010f9190611108565b60405180910390f35b610132600480360381019061012d91906111c3565b6103b4565b60405161013f919061121e565b60405180910390f35b6101506103d7565b60405161015d9190611248565b60405180910390f35b610180600480360381019061017b9190611263565b6103e1565b60405161018d919061121e565b60405180910390f35b61019e610410565b6040516101ab91906112d2565b60405180910390f35b6101ce60048036038101906101c991906111c3565b610419565b6040516101db919061121e565b60405180910390f35b6101fe60048036038101906101f991906111c3565b6104c3565b005b61021a600480360381019061021591906112ed565b61054d565b6040516102279190611248565b60405180910390f35b610238610595565b005b61024261061d565b60405161024f9190611329565b60405180910390f35b610260610647565b60405161026d9190611108565b60405180910390f35b610290600480360381019061028b91906111c3565b6106d9565b60405161029d919061121e565b60405180910390f35b6102c060048036038101906102bb91906111c3565b6107c3565b6040516102cd919061121e565b60405180910390f35b6102f060048036038101906102eb9190611344565b6107e6565b6040516102fd9190611248565b60405180910390f35b610320600480360381019061031b91906112ed565b61086d565b005b606060038054610331906113b3565b80601f016020809104026020016040519081016040528092919081815260200182805461035d906113b3565b80156103aa5780601f1061037f576101008083540402835291602001916103aa565b820191906000526020600020905b81548152906001019060200180831161038d57829003601f168201915b5050505050905090565b6000806103bf610964565b90506103cc81858561096c565b600191505092915050565b6000600254905090565b6000806103ec610964565b90506103f9858285610b35565b610404858585610bc1565b60019150509392505050565b60006012905090565b600080610424610964565b90506104b8818585600160008673ffffffffffffffffffffffffffffffffffffffff1673ffffffffffffffffffffffffffffffffffffffff16815260200190815260200160002060008973ffffffffffffffffffffffffffffffffffffffff1673ffffffffffffffffffffffffffffffffffffffff168152602001908152602001600020546104b39190611413565b61096c565b600191505092915050565b6104cb610964565b73ffffffffffffffffffffffffffffffffffffffff166104e961061d565b73ffffffffffffffffffffffffffffffffffffffff161461053f576040517f08c379a0000000000000000000000000000000000000000000000000000000008152600401610536906114b5565b60405180910390fd5b6105498282610e40565b5050565b60008060008373ffffffffffffffffffffffffffffffffffffffff1673ffffffffffffffffffffffffffffffffffffffff168152602001908152602001600020549050919050565b61059d610964565b73ffffffffffffffffffffffffffffffffffffffff166105bb61061d565b73ffffffffffffffffffffffffffffffffffffffff1614610611576040517f08c379a0000000000000000000000000000000000000000000000000000000008152600401610608906114b5565b60405180910390fd5b61061b6000610f9f565b565b6000600560009054906101000a900473ffffffffffffffffffffffffffffffffffffffff16905090565b606060048054610656906113b3565b80601f0160208091040260200160405190810160405280929190818152602001828054610682906113b3565b80156106cf5780601f106106a4576101008083540402835291602001916106cf565b820191906000526020600020905b8154815290600101906020018083116106b257829003601f168201915b5050505050905090565b6000806106e4610964565b90506000600160008373ffffffffffffffffffffffffffffffffffffffff1673ffffffffffffffffffffffffffffffffffffffff16815260200190815260200160002060008673ffffffffffffffffffffffffffffffffffffffff1673ffffffffffffffffffffffffffffffffffffffff168152602001908152602001600020549050838110156107aa576040517f08c379a00000000000000000000000000000000000000000000000000000000081526004016107a190611547565b60405180910390fd5b6107b7828686840361096c565b60019250505092915050565b6000806107ce610964565b90506107db818585610bc1565b600191505092915050565b6000600160008473ffffffffffffffffffffffffffffffffffffffff1673ffffffffffffffffffffffffffffffffffffffff16815260200190815260200160002060008373ffffffffffffffffffffffffffffffffffffffff1673ffffffffffffffffffffffffffffffffffffffff16815260200190815260200160002054905092915050565b610875610964565b73ffffffffffffffffffffffffffffffffffffffff1661089361061d565b73ffffffffffffffffffffffffffffffffffffffff16146108e9576040517f08c379a00000000000000000000000000000000000000000000000000000000081526004016108e0906114b5565b60405180910390fd5b600073ffffffffffffffffffffffffffffffffffffffff168173ffffffffffffffffffffffffffffffffffffffff1603610958576040517f08c379a000000000000000000000000000000000000000000000000000000000815260040161094f906115d9565b60405180910390fd5b61096181610f9f565b50565b600033905090565b600073ffffffffffffffffffffffffffffffffffffffff168373ffffffffffffffffffffffffffffffffffffffff16036109db576040517f08c379a00000000000000000000000000000000000000000000000000000000081526004016109d29061166b565b60405180910390fd5b600073ffffffffffffffffffffffffffffffffffffffff168273ffffffffffffffffffffffffffffffffffffffff1603610a4a576040517f08c379a0000000000000000000000000000000000000000000000000000000008152600401610a41906116fd565b60405180910390fd5b80600160008573ffffffffffffffffffffffffffffffffffffffff1673ffffffffffffffffffffffffffffffffffffffff16815260200190815260200160002060008473ffffffffffffffffffffffffffffffffffffffff1673ffffffffffffffffffffffffffffffffffffffff168152602001908152602001600020819055508173ffffffffffffffffffffffffffffffffffffffff168373ffffffffffffffffffffffffffffffffffffffff167f8c5be1e5ebec7d5bd14f71427d1e84f3dd0314c0f7b2291e5b200ac8c7c3b92583604051610b289190611248565b60405180910390a3505050565b6000610b4184846107e6565b90507fffffffffffffffffffffffffffffffffffffffffffffffffffffffffffffffff8114610bbb5781811015610bad576040517f08c379a0000000000000000000000000000000000000000000000000000000008152600401610ba490611769565b60405180910390fd5b610bba848484840361096c565b5b50505050565b600073ffffffffffffffffffffffffffffffffffffffff168373ffffffffffffffffffffffffffffffffffffffff1603610c30576040517f08c379a0000000000000000000000000000000000000000000000000000000008152600401610c27906117fb565b60405180910390fd5b600073ffffffffffffffffffffffffffffffffffffffff168273ffffffffffffffffffffffffffffffffffffffff1603610c9f576040517f08c379a0000000000000000000000000000000000000000000000000000000008152600401610c969061188d565b60405180910390fd5b610caa838383611065565b60008060008573ffffffffffffffffffffffffffffffffffffffff1673ffffffffffffffffffffffffffffffffffffffff16815260200190815260200160002054905081811015610d30576040517f08c379a0000000000000000000000000000000000000000000000000000000008152600401610d279061191f565b60405180910390fd5b8181036000808673ffffffffffffffffffffffffffffffffffffffff1673ffffffffffffffffffffffffffffffffffffffff16815260200190815260200160002081905550816000808573ffffffffffffffffffffffffffffffffffffffff1673ffffffffffffffffffffffffffffffffffffffff1681526020019081526020016000206000828254610dc39190611413565b925050819055508273ffffffffffffffffffffffffffffffffffffffff168473ffffffffffffffffffffffffffffffffffffffff167fddf252ad1be2c89b69c2b068fc378daa952ba7f163c4a11628f55a4df523b3ef84604051610e279190611248565b60405180910390a3610e3a84848461106a565b50505050565b600073ffffffffffffffffffffffffffffffffffffffff168273ffffffffffffffffffffffffffffffffffffffff1603610eaf576040517f08c379a0000000000000000000000000000000000000000000000000000000008152600401610ea69061198b565b60405180910390fd5b610ebb60008383611065565b8060026000828254610ecd9190611413565b92505081905550806000808473ffffffffffffffffffffffffffffffffffffffff1673ffffffffffffffffffffffffffffffffffffffff1681526020019081526020016000206000828254610f229190611413565b925050819055508173ffffffffffffffffffffffffffffffffffffffff16600073ffffffffffffffffffffffffffffffffffffffff167fddf252ad1be2c89b69c2b068fc378daa952ba7f163c4a11628f55a4df523b3ef83604051610f879190611248565b60405180910390a3610f9b6000838361106a565b5050565b6000600560009054906101000a900473ffffffffffffffffffffffffffffffffffffffff16905081600560006101000a81548173ffffffffffffffffffffffffffffffffffffffff021916908373ffffffffffffffffffffffffffffffffffffffff1602179055508173ffffffffffffffffffffffffffffffffffffffff168173ffffffffffffffffffffffffffffffffffffffff167f8be0079c531659141344cd1fd0a4f28419497f9722a3daafe3b4186f6b6457e060405160405180910390a35050565b505050565b505050565b600081519050919050565b600082825260208201905092915050565b60005b838110156110a957808201518184015260208101905061108e565b838111156110b8576000848401525b50505050565b6000601f19601f8301169050919050565b60006110da8261106f565b6110e4818561107a565b93506110f481856020860161108b565b6110fd816110be565b840191505092915050565b6000602082019050818103600083015261112281846110cf565b905092915050565b600080fd5b600073ffffffffffffffffffffffffffffffffffffffff82169050919050565b600061115a8261112f565b9050919050565b61116a8161114f565b811461117557600080fd5b50565b60008135905061118781611161565b92915050565b6000819050919050565b6111a08161118d565b81146111ab57600080fd5b50565b6000813590506111bd81611197565b92915050565b600080604083850312156111da576111d961112a565b5b60006111e885828601611178565b92505060206111f9858286016111ae565b9150509250929050565b60008115159050919050565b61121881611203565b82525050565b6000602082019050611233600083018461120f565b92915050565b6112428161118d565b82525050565b600060208201905061125d6000830184611239565b92915050565b60008060006060848603121561127c5761127b61112a565b5b600061128a86828701611178565b935050602061129b86828701611178565b92505060406112ac868287016111ae565b9150509250925092565b600060ff82169050919050565b6112cc816112b6565b82525050565b60006020820190506112e760008301846112c3565b92915050565b6000602082840312156113035761130261112a565b5b600061131184828501611178565b91505092915050565b6113238161114f565b82525050565b600060208201905061133e600083018461131a565b92915050565b6000806040838503121561135b5761135a61112a565b5b600061136985828601611178565b925050602061137a85828601611178565b9150509250929050565b7f4e487b7100000000000000000000000000000000000000000000000000000000600052602260045260246000fd5b600060028204905060018216806113cb57607f821691505b6020821081036113de576113dd611384565b5b50919050565b7f4e487b7100000000000000000000000000000000000000000000000000000000600052601160045260246000fd5b600061141e8261118d565b91506114298361118d565b9250827fffffffffffffffffffffffffffffffffffffffffffffffffffffffffffffffff0382111561145e5761145d6113e4565b5b828201905092915050565b7f4f776e61626c653a2063616c6c6572206973206e6f7420746865206f776e6572600082015250565b600061149f60208361107a565b91506114aa82611469565b602082019050919050565b600060208201905081810360008301526114ce81611492565b9050919050565b7f45524332303a2064656372656173656420616c6c6f77616e63652062656c6f7760008201527f207a65726f000000000000000000000000000000000000000000000000000000602082015250565b600061153160258361107a565b915061153c826114d5565b604082019050919050565b6000602082019050818103600083015261156081611524565b9050919050565b7f4f776e61626c653a206e6577206f776e657220697320746865207a65726f206160008201527f6464726573730000000000000000000000000000000000000000000000000000602082015250565b60006115c360268361107a565b91506115ce82611567565b604082019050919050565b600060208201905081810360008301526115f2816115b6565b9050919050565b7f45524332303a20617070726f76652066726f6d20746865207a65726f2061646460008201527f7265737300000000000000000000000000000000000000000000000000000000602082015250565b600061165560248361107a565b9150611660826115f9565b604082019050919050565b6000602082019050818103600083015261168481611648565b9050919050565b7f45524332303a20617070726f766520746f20746865207a65726f20616464726560008201527f7373000000000000000000000000000000000000000000000000000000000000602082015250565b60006116e760228361107a565b91506116f28261168b565b604082019050919050565b60006020820190508181036000830152611716816116da565b9050919050565b7f45524332303a20696e73756666696369656e7420616c6c6f77616e6365000000600082015250565b6000611753601d8361107a565b915061175e8261171d565b602082019050919050565b6000602082019050818103600083015261178281611746565b9050919050565b7f45524332303a207472616e736665722066726f6d20746865207a65726f20616460008201527f6472657373000000000000000000000000000000000000000000000000000000602082015250565b60006117e560258361107a565b91506117f082611789565b604082019050919050565b60006020820190508181036000830152611814816117d8565b9050919050565b7f45524332303a207472616e7366657220746f20746865207a65726f206164647260008201527f6573730000000000000000000000000000000000000000000000000000000000602082015250565b600061187760238361107a565b91506118828261181b565b604082019050919050565b600060208201905081810360008301526118a68161186a565b9050919050565b7f45524332303a207472616e7366657220616d6f756e742065786365656473206260008201527f616c616e63650000000000000000000000000000000000000000000000000000602082015250565b600061190960268361107a565b9150611914826118ad565b604082019050919050565b60006020820190508181036000830152611938816118fc565b9050919050565b7f45524332303a206d696e7420746f20746865207a65726f206164647265737300600082015250565b6000611975601f8361107a565b91506119808261193f565b602082019050919050565b600060208201905081810360008301526119a481611968565b905091905056fea2646970667358221220613609de6acdf2046f1001e8420148d9401a3b1be460597d2cffdafff97c724664736f6c634300080d0033",
  "immutableReferences": {},
  "source": "// SPDX-License-Identifier: MIT\npragma solidity 0.8.13;\n\n\nimport \"../node_modules/@chainlink/contracts/src/v0.8/interfaces/AggregatorV3Interface.sol\";\nimport \"../node_modules/@openzeppelin/contracts/token/ERC20/ERC20.sol\";\nimport \"./UniFiToken.sol\";\n\ncontract Staking {\n\n  struct Stake {\n    address tokenAddress;\n    uint256 amount;\n    uint256 sinceTimestamp;\n    uint256 untilTimestamp;\n  }\n\n  // example: with ETH/USD chainlink price feed, tokenA is ETH and tokenB is USD\n  struct PriceOracle {\n    address aggregatorAddress;\n    string tokenA;\n    string tokenB;\n  }\n\n  uint256 constant public distributionPerSecond = 10;\n\n  UniFiToken internal _unifiToken;  \n\n  // User address => Stake struct array\n  mapping(address => Stake[]) public tokenStakes; // user -> stakes\n\n  /// We need to add price oracles that all have the same tokenB (ETHUSD, LINKUSD...)\n\n  // the pair \"ETHUSD\" => PriceOracle struct\n  mapping(string => PriceOracle) public priceOracles;\n  // tokenA address => the pair \"ETHUSD\" for example\n  mapping(address => string) public priceOracleKeys;\n\n  /// Events\n  \n  event Staked(address sender, uint256 amount, uint256 stakeId);\n  event Unstaked(address sender, uint256 amount);\n  event Claimed(address sender, uint256 amount);\n\n  /// Constructor\n\n  constructor(address ethUsdPriceFeedAddress_)  {\n    priceOracles[\"ETHUSD\"] = PriceOracle(ethUsdPriceFeedAddress_, \"ETH\", \"USD\");\n    priceOracleKeys[ethUsdPriceFeedAddress_] = \"ETHUSD\";\n    // Creates the token with 0 supply\n    _unifiToken = new UniFiToken(0);\n  }\n\n  /// Public methods\n\n  // Return the current value of the user stake\n  function getStakeValue(address user_, uint256 stakeId_) public view returns (uint) {\n    Stake[] storage userTokenStakes = tokenStakes[user_];\n    require(userTokenStakes.length > stakeId_, \"getStakeValue incorrect stake id\");\n\n    Stake storage userTokenStake = userTokenStakes[stakeId_];\n    string storage pair = priceOracleKeys[userTokenStake.tokenAddress];\n    return userTokenStake.amount * this.getOraclePrice(pair);\n  }\n\n  // Returns the latest price of the chainlink oracle for a given pair\n  // If no oracle found, return ETHUSD price\n  function getOraclePrice(string memory pair_) public view returns (uint) {\n    //require(priceOracles[pair_].aggregatorAddress != address(0), \"price oracle not found\");\n    AggregatorV3Interface oracle;\n    if(priceOracles[pair_].aggregatorAddress == address(0)) {\n      oracle = AggregatorV3Interface(priceOracles[\"ETHUSD\"].aggregatorAddress);\n    } else {\n      oracle = AggregatorV3Interface(priceOracles[pair_].aggregatorAddress);\n    }\n    (\n      /*uint80 roundID*/,\n      int price,\n      /*uint startedAt*/,\n      /*uint timeStamp*/,\n      /*uint80 answeredInRound*/\n    ) = oracle.latestRoundData();\n    return uint(price);\n  }\n\n  // Send claimable rewards of user_ for its Stake defined by stakeId_\n  // This function is only callable by the contract as we don't want anyone to \n  // be able to claim rewards for someone else but still public so that we can \n  // use it in claim and unstake functions \n  function _claim(address user_, uint256 stakeId_) public {\n    require(msg.sender == address(this), \"this method can only be called by the contract\");\n    Stake[] storage userTokenStakes = tokenStakes[user_];\n    require(userTokenStakes.length > stakeId_, \"_claim incorrect stake id\");\n    require(userTokenStakes[stakeId_].untilTimestamp == 0, '_claim: Already unstaked');\n\n    uint256 rewardsAmount = this.getClaimable(user_, stakeId_);\n    // set new stake timestamp\n    userTokenStakes[stakeId_].sinceTimestamp = block.timestamp;\n    // send protocol token to user\n    _unifiToken.mintTo(user_, rewardsAmount);\n    // event\n    emit Claimed(user_, rewardsAmount);\n  }\n  \n  /// External calls\n\n  // stake an amount of token and returns the stake id\n  function stake(address token_, uint256 amount_) external returns (uint256) {\n    require(amount_ > 0, \"Cannot stake 0 amount\");\n\n    Stake[] storage userTokenStakes = tokenStakes[msg.sender];\n\n    userTokenStakes.push(Stake(token_, amount_, block.timestamp, 0));\n\n    ERC20(token_).transferFrom(msg.sender, address(this), amount_);\n\n    emit Staked(msg.sender, amount_, userTokenStakes.length - 1);\n    return userTokenStakes.length - 1;\n  }\n\n  // Claim sender rewards for a Stake\n  function claim(uint256 stakeId_) external {    \n    this._claim(msg.sender, stakeId_);\n  }\n\n  function unstake(uint256 stakeId_) external {\n    Stake[] storage userTokenStakes = tokenStakes[msg.sender];\n    require(userTokenStakes.length > stakeId_, \"unstake: incorrect stake id\");\n    // save how much we need to send\n    uint amount = userTokenStakes[stakeId_].amount;\n\n    require(amount > 0, \"Stake not found\");\n    require(userTokenStakes[stakeId_].untilTimestamp == 0, 'unstake: Already unstaked');\n    \n    // send rewards to user\n    this._claim(msg.sender, stakeId_);\n    // set the timestamp user unstaked\n    userTokenStakes[stakeId_].untilTimestamp = block.timestamp;\n    // reset balance now\n    userTokenStakes[stakeId_].amount = 0;\n    // get the token we want to unstake\n    address token = userTokenStakes[stakeId_].tokenAddress;\n    // allow token to be sent\n    ERC20(token).approve(msg.sender, amount);\n    // send unstaked token to user\n    ERC20(token).transferFrom(address(this), msg.sender, amount);\n    // event\n    emit Unstaked(msg.sender, amount);\n  }\n\n  // get the amount of claimable protocol token\n  function getClaimable(address user_, uint256 stakeId_) public view returns(uint256) {\n    Stake[] storage userTokenStakes = tokenStakes[user_];\n    require(userTokenStakes.length > stakeId_, \"getClaimable incorrect stake id\");\n    require(userTokenStakes[stakeId_].untilTimestamp == 0, 'Already unstaked');\n    \n    // how much rewards for the staked duration\n    uint256 rewardsForDuration = (block.timestamp - userTokenStakes[stakeId_].sinceTimestamp) * distributionPerSecond;\n    // proportionnal to stake value\n    return rewardsForDuration * this.getStakeValue(user_, stakeId_);\n  }\n\n  /// External views\n\n  // Return the protocol token address\n  function getProtocolTokenAddress() external view returns (address) {\n    return address(_unifiToken);\n  }\n\n  // Return the array of Stake struct for a user\n  function getUserStakes(address user_) external view returns (Stake[] memory) {\n    return tokenStakes[user_];\n  }\n\n  // Return the Stake struct for a user stakeId\n  function getUserStake(address user_, uint256 stakeId_) external view returns (Stake memory) {\n    return tokenStakes[user_][stakeId_];\n  }\n\n  function getUserBalance(address user_, address token_) external view returns (uint256) {\n    return ERC20(token_).balanceOf(user_);\n  }\n}",
  "sourcePath": "/home/marielle/COURS/Alyra/Alyra-Defi-Project/contracts/Staking.sol",
  "compiler": {
    "name": "solc",
    "version": "0.8.13+commit.abaa5c0e.Emscripten.clang"
  },
  "schemaVersion": "3.4.7",
  "updatedAt": "2022-05-15T09:31:19.737Z",
  "networkType": "ethereum",
  "devdoc": {
    "kind": "dev",
    "methods": {},
    "version": 1
  },
  "userdoc": {
    "events": {
      "Staked(address,uint256,uint256)": {
        "notice": "Events"
      }
    },
    "kind": "user",
    "methods": {
      "constructor": {
        "notice": "Constructor"
      },
      "getProtocolTokenAddress()": {
        "notice": "External views"
      },
      "getStakeValue(address,uint256)": {
        "notice": "Public methods"
      },
      "priceOracles(string)": {
        "notice": "We need to add price oracles that all have the same tokenB (ETHUSD, LINKUSD...)"
      },
      "stake(address,uint256)": {
        "notice": "External calls"
      }
    },
    "version": 1
  }
}